:020000040000FA
:060000000A128A110C280F
:10000800FE00030EF0000A08F1000A128A115228B5
:100018000A128A110F2883010A128A1149288316A5
:1000280003178801890183160313850106148614B2
:10003800061587018801890183120313850186014A
:10004800870188018901831603130F088F396038E7
:100058008F000F1481131514951415150A128A119F
:100068005A200A128A110A128A1159200A128A1170
:100078008B178B160B118B168B150B10831603130E
:100088000C14831203130C1008000A128A1113208F
:100098000A128A114E280A128A110C2871088A003D
:0E00A800700E8300FE0E7E0E09000800080098
:04400E00D420FF3F7C
:00000001FF
