:020000040000FA
:060000000A128A110E280D
:10000800FE00030EF2000408F3000A08F4000A12C6
:100018008A1181290A128A111128F601F701F801BB
:1000280083120313AF01B001B101B201B301B401EE
:10003800B501B60183010A128A1122280A128A110F
:10004800F4200A128A111A3083120313AE00F73013
:10005800AD00AD0B2D28AE0B2D28322883120313CB
:100068009F140A128A11C3210A128A110A128A11CC
:100078003F220A128A110A3083120313A7000030A4
:10008800A8006430A0000030A1003008A3002F08A9
:10009800A2000A128A113B210A128A118312031341
:1000A8002108AA002008A9000A128A1103220A12AC
:1000B8008A11831203132808B6002708B5000A30EE
:1000C800A7000030A8000A30A0000030A1003008C6
:1000D800A3002F08A2000A128A113B210A128A11D2
:1000E800831203132108AA002008A9000A128A1102
:1000F80003220A128A11831203132808B40027085E
:10010800B3000A30A7000030A8003008AA002F0862
:10011800A9000A128A1103220A128A1183120313F0
:100128002808B2002708B1000708AD00AE01300862
:100138002E06031DA1282F082D06031DA428A52877
:10014800A72888173528881335280A128A110E28F7
:10015800F500C9283F308800F3285B308800F32871
:100168004F308800F32866308800F3286D30880007
:10017800F3287D308800F32807308800F3287F3083
:100188008800F3286F308800F3287508831203135A
:10019800A000A1012108003A0319D328F328200858
:1001A800003A0319AE28013A0319B128033A031992
:1001B800B128013A0319B428073A0319B728013AB4
:1001C8000319BA28033A0319BD28013A0319C028AC
:1001D8000F3A0319C328013A0319C628F32808005F
:1001E800831603178801890108148316031305145D
:1001F80005100614861487018801890183120313E8
:1002080085018601870188018901831603130F0878
:100218008F3960388F000F14811201128111011576
:10022800811401140530831203138100831603130C
:1002380081131514951415150A128A115C220A12D5
:100248008A118B178B160B118B150B108316031342
:100258000C14831203130C10831603130C17831248
:1002680003130C1383160313161496140800831231
:100278000313A501A60120082104031944294529CF
:100288007C29A401A40A532901300310A00DA10D53
:10029800FF3E031D49290130F5007508A407A11F79
:1002A80056295729482901300310A50DA60DFF3EF0
:1002B800031D582921082302031D6429200822024E
:1002C800031C672968296F292008A2022108031C3A
:1002D800A303A302251401300310A10CA00CFF3EB8
:1002E800031D70290130A402031D7B297C2957298D
:1002F8002608A1002508A00008000B1D84298529CF
:100308008A290130F0007008F6070B110B1C8D29A3
:100318008E29AB299829F801F80AAA29F701F70AC2
:10032800AA29F801F701AA29831203130608F00085
:10033800F1017108003A0319A22995297008FD3ABC
:1003480003199229033A03198F2995290B1083124F
:1003580003130C1FB029B129BA291E08F000F101B6
:100368007008AF007108B0009F140C1374088A005D
:1003780073088400720E8300FE0E7E0E0900EA29BF
:1003880035080A128A11AC200A128A118312031343
:10039800091489100911022A33080A128A11AC209B
:1003A8000A128A1183120313091089140911022AE7
:1003B80031080A128A11AC200A128A118312031317
:1003C800091089100915022AF601022A76088312F3
:1003D8000313A200A3012308003A0319F429022AEF
:1003E8002208013A0319C429033A0319D029013A0A
:1003F8000319DC29073A0319E829022A080083129D
:1004080003132708280403190A2A0B2A3A2AAC01DD
:10041800AC0A192A01300310A70DA80DFF3E031DD1
:100428000F2A0130AB002B08AC07A81F1C2A1D2A75
:100438000E2A28082A02031D232A27082902031C3A
:10044800262A272A2D2A2708A9022808031CAA03D6
:10045800AA0201300310A80CA70CFF3E031D2E2A88
:100468000130AC02031D392A3A2A1D2A2A08A8009D
:100478002908A70008007803031D432A442A4E2AA6
:1004880083120313061C492A4A2A4E2A0130F50012
:10049800750887077703031D522A532A5B2A83129C
:1004A8000313861C582A592A5B2A01308702080040
:1004B800831603139F131F129F12831203131F081F
:1004C8003F3940389F00C3309F051030F500F50BC9
:0C04D8006B2A0000831203131F1408009D
:04400E00D420FF3F7C
:00000001FF
