:020000040000FA
:060000000A128A110E280D
:10000800FE00030EF7000408F8000A08F9000A12B7
:100018008A11CC280A128A111128F001F101F20183
:10002800F301F40183120313A701A80183010A1243
:100038008A118A2883120313A2004F28BF30880030
:1000480089285B30880089284F30880089286630E5
:10005800880089286D30880089287D3088008928A3
:100068000730880089287F30880089286F30880009
:1000780089287730880089287C3088008928393099
:10008800880089285E308800892879308800892886
:100098007130880089282208A000A1012108003AAF
:1000A8000319572889282008003A03192228013AF9
:1000B80003192528033A03192528013A0319282882
:1000C800073A03192B28013A03192E28033A031972
:1000D8003128013A031934280F3A03193728013A0D
:1000E80003193A28033A03193D28013A031940280D
:1000F800073A03194328013A03194628033A031912
:100108004928013A03194C28892808000A128A113B
:100118000E210A128A111A3083120313A600F7302F
:10012800A500A50B9528A60B95289A2883120313DA
:100138009F140A128A114F210A128A110A128A116F
:1001480080210A128A11831203131E080F39A50091
:100158002508F1001E08F039A5002508F0007008F0
:10016800A50004300310A50CFF3E031DB628250882
:10017800A6002608F00007081E06031DC428C52887
:10018800C72888179D2888139D280A128A110E28C7
:100198000B1DCF28D028D5280130F5007508F207A7
:1001A8000B110B1CD828D928F628E328F401F40AE7
:1001B800F528F301F30AF528F401F301F528831271
:1001C80003130608F500F6017608003A0319ED282E
:1001D800E0287508FD3A0319DD28033A0319DA28DF
:1001E800E0280B10831203130C1FFB28FC28052999
:1001F8001E08F500F6017508A7007608A8009F14E8
:100208000C1379088A0078088400770E8300FE0EA4
:100218007E0E0900831603178801890108148316C6
:100228000313051405100614861487018801890133
:1002380083120313850186018701880189018316CA
:1002480003130F088F3960388F000F1481120112C1
:100258008111011581140114FF30831203138100E9
:100268008316031381131514951415150A128A1190
:100278009F210A128A118B178B160B118B150B10E5
:10028800831603130C17831203130C13831603131B
:100298001614961408006A2971080A128A111E2079
:1002A8000A128A11831203130914891009117F296C
:1002B80070080A128A111E200A128A118312031367
:1002C8000910891409117F29F2017F297208831204
:1002D8000313A300A4012408003A031974297F29F1
:1002E8002308013A03195029033A03195C29013AF2
:1002F800031968297F2908007403031D84298529A7
:1003080090298312031306188A298B299029013012
:10031800A00020088707F4017303031D9429952979
:100328009E298312031386189A299B299E29013036
:100338008702F3010800831603139F131F129F12ED
:10034800831203131F083F3940389F00C3309F05AD
:100358000F3083120313A000A00BB029B329831216
:0603680003131F1408003E
:04400E00D420FF3F7C
:00000001FF
