:020000040000FA
:060000000A128A110C280F
:10000800FE00030EF0000A08F1000A128A114B28BC
:100018000A128A110F2883010A128A113D288316B1
:1000280003178801890183160313850106148614B2
:10003800061587018801890183120313850186014A
:10004800870188018901831603130F088F396038E7
:100058008F000F1481131514951415158B178B1613
:100068000B118B168B150B100C14831203130C1029
:1000780008000A128A1113200A128A110A128A1118
:1000880052200A128A1147280A128A110C2871086C
:0E0098008A00700E8300FE0E7E0E0900080026
:04400E00D420FF3F7C
:00000001FF
